{
  "_format": "hh-sol-artifact-1",
  "contractName": "MyTestNFT",
  "sourceName": "contracts/MyTestNFT.sol",
  "abi": [
    {
      "inputs": [],
      "stateMutability": "nonpayable",
      "type": "constructor"
    },
    {
      "anonymous": false,
      "inputs": [
        {
          "indexed": true,
          "internalType": "address",
          "name": "owner",
          "type": "address"
        },
        {
          "indexed": true,
          "internalType": "address",
          "name": "approved",
          "type": "address"
        },
        {
          "indexed": true,
          "internalType": "uint256",
          "name": "tokenId",
          "type": "uint256"
        }
      ],
      "name": "Approval",
      "type": "event"
    },
    {
      "anonymous": false,
      "inputs": [
        {
          "indexed": true,
          "internalType": "address",
          "name": "owner",
          "type": "address"
        },
        {
          "indexed": true,
          "internalType": "address",
          "name": "operator",
          "type": "address"
        },
        {
          "indexed": false,
          "internalType": "bool",
          "name": "approved",
          "type": "bool"
        }
      ],
      "name": "ApprovalForAll",
      "type": "event"
    },
    {
      "anonymous": false,
      "inputs": [
        {
          "indexed": true,
          "internalType": "address",
          "name": "from",
          "type": "address"
        },
        {
          "indexed": true,
          "internalType": "address",
          "name": "to",
          "type": "address"
        },
        {
          "indexed": true,
          "internalType": "uint256",
          "name": "tokenId",
          "type": "uint256"
        }
      ],
      "name": "Transfer",
      "type": "event"
    },
    {
      "inputs": [
        {
          "internalType": "address",
          "name": "to",
          "type": "address"
        },
        {
          "internalType": "uint256",
          "name": "tokenId",
          "type": "uint256"
        }
      ],
      "name": "approve",
      "outputs": [],
      "stateMutability": "nonpayable",
      "type": "function"
    },
    {
      "inputs": [
        {
          "internalType": "address",
          "name": "owner",
          "type": "address"
        }
      ],
      "name": "balanceOf",
      "outputs": [
        {
          "internalType": "uint256",
          "name": "",
          "type": "uint256"
        }
      ],
      "stateMutability": "view",
      "type": "function"
    },
    {
      "inputs": [
        {
          "internalType": "uint256",
          "name": "tokenId",
          "type": "uint256"
        }
      ],
      "name": "getApproved",
      "outputs": [
        {
          "internalType": "address",
          "name": "",
          "type": "address"
        }
      ],
      "stateMutability": "view",
      "type": "function"
    },
    {
      "inputs": [
        {
          "internalType": "address",
          "name": "owner",
          "type": "address"
        },
        {
          "internalType": "address",
          "name": "operator",
          "type": "address"
        }
      ],
      "name": "isApprovedForAll",
      "outputs": [
        {
          "internalType": "bool",
          "name": "",
          "type": "bool"
        }
      ],
      "stateMutability": "view",
      "type": "function"
    },
    {
      "inputs": [],
      "name": "name",
      "outputs": [
        {
          "internalType": "string",
          "name": "",
          "type": "string"
        }
      ],
      "stateMutability": "view",
      "type": "function"
    },
    {
      "inputs": [],
      "name": "numberOfNftMinted",
      "outputs": [
        {
          "internalType": "uint256",
          "name": "",
          "type": "uint256"
        }
      ],
      "stateMutability": "view",
      "type": "function"
    },
    {
      "inputs": [
        {
          "internalType": "uint256",
          "name": "tokenId",
          "type": "uint256"
        }
      ],
      "name": "ownerOf",
      "outputs": [
        {
          "internalType": "address",
          "name": "",
          "type": "address"
        }
      ],
      "stateMutability": "view",
      "type": "function"
    },
    {
      "inputs": [
        {
          "internalType": "address",
          "name": "to",
          "type": "address"
        },
        {
          "internalType": "string",
          "name": "tokenURI",
          "type": "string"
        }
      ],
      "name": "safeMint",
      "outputs": [
        {
          "internalType": "uint256",
          "name": "",
          "type": "uint256"
        }
      ],
      "stateMutability": "nonpayable",
      "type": "function"
    },
    {
      "inputs": [
        {
          "internalType": "address",
          "name": "from",
          "type": "address"
        },
        {
          "internalType": "address",
          "name": "to",
          "type": "address"
        },
        {
          "internalType": "uint256",
          "name": "tokenId",
          "type": "uint256"
        }
      ],
      "name": "safeTransferFrom",
      "outputs": [],
      "stateMutability": "nonpayable",
      "type": "function"
    },
    {
      "inputs": [
        {
          "internalType": "address",
          "name": "from",
          "type": "address"
        },
        {
          "internalType": "address",
          "name": "to",
          "type": "address"
        },
        {
          "internalType": "uint256",
          "name": "tokenId",
          "type": "uint256"
        },
        {
          "internalType": "bytes",
          "name": "data",
          "type": "bytes"
        }
      ],
      "name": "safeTransferFrom",
      "outputs": [],
      "stateMutability": "nonpayable",
      "type": "function"
    },
    {
      "inputs": [
        {
          "internalType": "address",
          "name": "operator",
          "type": "address"
        },
        {
          "internalType": "bool",
          "name": "approved",
          "type": "bool"
        }
      ],
      "name": "setApprovalForAll",
      "outputs": [],
      "stateMutability": "nonpayable",
      "type": "function"
    },
    {
      "inputs": [
        {
          "internalType": "bytes4",
          "name": "interfaceId",
          "type": "bytes4"
        }
      ],
      "name": "supportsInterface",
      "outputs": [
        {
          "internalType": "bool",
          "name": "",
          "type": "bool"
        }
      ],
      "stateMutability": "view",
      "type": "function"
    },
    {
      "inputs": [],
      "name": "symbol",
      "outputs": [
        {
          "internalType": "string",
          "name": "",
          "type": "string"
        }
      ],
      "stateMutability": "view",
      "type": "function"
    },
    {
      "inputs": [
        {
          "internalType": "uint256",
          "name": "tokenId",
          "type": "uint256"
        }
      ],
      "name": "tokenURI",
      "outputs": [
        {
          "internalType": "string",
          "name": "",
          "type": "string"
        }
      ],
      "stateMutability": "view",
      "type": "function"
    },
    {
      "inputs": [
        {
          "internalType": "address",
          "name": "from",
          "type": "address"
        },
        {
          "internalType": "address",
          "name": "to",
          "type": "address"
        },
        {
          "internalType": "uint256",
          "name": "tokenId",
          "type": "uint256"
        }
      ],
      "name": "transferFrom",
      "outputs": [],
      "stateMutability": "nonpayable",
      "type": "function"
    }
  ],
  "bytecode": "0x60806040523480156200001157600080fd5b50604080518082018252600b81526a135e4815195cdd0813919560aa1b60208083019182528351808501909452600384526226aa2760e91b90840152815191929162000060916000916200007f565b508051620000769060019060208401906200007f565b50505062000162565b8280546200008d9062000125565b90600052602060002090601f016020900481019282620000b15760008555620000fc565b82601f10620000cc57805160ff1916838001178555620000fc565b82800160010185558215620000fc579182015b82811115620000fc578251825591602001919060010190620000df565b506200010a9291506200010e565b5090565b5b808211156200010a57600081556001016200010f565b600181811c908216806200013a57607f821691505b602082108114156200015c57634e487b7160e01b600052602260045260246000fd5b50919050565b61162e80620001726000396000f3fe608060405234801561001057600080fd5b50600436106100f55760003560e01c806370a0823111610097578063c87b56dd11610066578063c87b56dd146101ff578063d204c45e14610212578063db889cae14610225578063e985e9c51461022d57600080fd5b806370a08231146101b057806395d89b41146101d1578063a22cb465146101d9578063b88d4fde146101ec57600080fd5b8063095ea7b3116100d3578063095ea7b31461016257806323b872dd1461017757806342842e0e1461018a5780636352211e1461019d57600080fd5b806301ffc9a7146100fa57806306fdde0314610122578063081812fc14610137575b600080fd5b61010d610108366004611139565b610269565b60405190151581526020015b60405180910390f35b61012a6102bb565b60405161011991906111ae565b61014a6101453660046111c1565b61034d565b6040516001600160a01b039091168152602001610119565b6101756101703660046111f6565b610374565b005b610175610185366004611220565b61048f565b610175610198366004611220565b6104c0565b61014a6101ab3660046111c1565b6104db565b6101c36101be36600461125c565b61053b565b604051908152602001610119565b61012a6105c1565b6101756101e7366004611277565b6105d0565b6101756101fa36600461133f565b6105df565b61012a61020d3660046111c1565b610617565b6101c36102203660046113bb565b610728565b6101c361075f565b61010d61023b36600461141d565b6001600160a01b03918216600090815260056020908152604080832093909416825291909152205460ff1690565b60006001600160e01b031982166380ac58cd60e01b148061029a57506001600160e01b03198216635b5e139f60e01b145b806102b557506301ffc9a760e01b6001600160e01b03198316145b92915050565b6060600080546102ca90611450565b80601f01602080910402602001604051908101604052809291908181526020018280546102f690611450565b80156103435780601f1061031857610100808354040283529160200191610343565b820191906000526020600020905b81548152906001019060200180831161032657829003601f168201915b5050505050905090565b60006103588261076f565b506000908152600460205260409020546001600160a01b031690565b600061037f826104db565b9050806001600160a01b0316836001600160a01b031614156103f25760405162461bcd60e51b815260206004820152602160248201527f4552433732313a20617070726f76616c20746f2063757272656e74206f776e656044820152603960f91b60648201526084015b60405180910390fd5b336001600160a01b038216148061040e575061040e813361023b565b6104805760405162461bcd60e51b815260206004820152603d60248201527f4552433732313a20617070726f76652063616c6c6572206973206e6f7420746f60448201527f6b656e206f776e6572206f7220617070726f76656420666f7220616c6c00000060648201526084016103e9565b61048a83836107d1565b505050565b610499338261083f565b6104b55760405162461bcd60e51b81526004016103e99061148b565b61048a8383836108bd565b61048a838383604051806020016040528060008152506105df565b6000818152600260205260408120546001600160a01b0316806102b55760405162461bcd60e51b8152602060048201526018602482015277115490cdcc8c4e881a5b9d985b1a59081d1bdad95b88125160421b60448201526064016103e9565b60006001600160a01b0382166105a55760405162461bcd60e51b815260206004820152602960248201527f4552433732313a2061646472657373207a65726f206973206e6f7420612076616044820152683634b21037bbb732b960b91b60648201526084016103e9565b506001600160a01b031660009081526003602052604090205490565b6060600180546102ca90611450565b6105db338383610a21565b5050565b6105e9338361083f565b6106055760405162461bcd60e51b81526004016103e99061148b565b61061184848484610af0565b50505050565b60606106228261076f565b6000828152600660205260408120805461063b90611450565b80601f016020809104026020016040519081016040528092919081815260200182805461066790611450565b80156106b45780601f10610689576101008083540402835291602001916106b4565b820191906000526020600020905b81548152906001019060200180831161069757829003601f168201915b5050505050905060006106d260408051602081019091526000815290565b90508051600014156106e5575092915050565b8151156107175780826040516020016106ff9291906114d8565b60405160208183030381529060405292505050919050565b61072084610b23565b949350505050565b60008061073460075490565b9050610744600780546001019055565b61074e8482610b96565b6107588184610bb0565b9392505050565b600061076a60075490565b905090565b6000818152600260205260409020546001600160a01b03166107ce5760405162461bcd60e51b8152602060048201526018602482015277115490cdcc8c4e881a5b9d985b1a59081d1bdad95b88125160421b60448201526064016103e9565b50565b600081815260046020526040902080546001600160a01b0319166001600160a01b0384169081179091558190610806826104db565b6001600160a01b03167f8c5be1e5ebec7d5bd14f71427d1e84f3dd0314c0f7b2291e5b200ac8c7c3b92560405160405180910390a45050565b60008061084b836104db565b9050806001600160a01b0316846001600160a01b0316148061089257506001600160a01b0380821660009081526005602090815260408083209388168352929052205460ff165b806107205750836001600160a01b03166108ab8461034d565b6001600160a01b031614949350505050565b826001600160a01b03166108d0826104db565b6001600160a01b0316146108f65760405162461bcd60e51b81526004016103e990611507565b6001600160a01b0382166109585760405162461bcd60e51b8152602060048201526024808201527f4552433732313a207472616e7366657220746f20746865207a65726f206164646044820152637265737360e01b60648201526084016103e9565b826001600160a01b031661096b826104db565b6001600160a01b0316146109915760405162461bcd60e51b81526004016103e990611507565b600081815260046020908152604080832080546001600160a01b03199081169091556001600160a01b0387811680865260038552838620805460001901905590871680865283862080546001019055868652600290945282852080549092168417909155905184937fddf252ad1be2c89b69c2b068fc378daa952ba7f163c4a11628f55a4df523b3ef91a4505050565b816001600160a01b0316836001600160a01b03161415610a835760405162461bcd60e51b815260206004820152601960248201527f4552433732313a20617070726f766520746f2063616c6c65720000000000000060448201526064016103e9565b6001600160a01b03838116600081815260056020908152604080832094871680845294825291829020805460ff191686151590811790915591519182527f17307eab39ab6107e8899845ad3d59bd9653f200f220920489ca2b5937696c31910160405180910390a3505050565b610afb8484846108bd565b610b0784848484610c4a565b6106115760405162461bcd60e51b81526004016103e99061154c565b6060610b2e8261076f565b6000610b4560408051602081019091526000815290565b90506000815111610b655760405180602001604052806000815250610758565b80610b6f84610d57565b604051602001610b809291906114d8565b6040516020818303038152906040529392505050565b6105db828260405180602001604052806000815250610df4565b6000828152600260205260409020546001600160a01b0316610c2b5760405162461bcd60e51b815260206004820152602e60248201527f45524337323155524953746f726167653a2055524920736574206f66206e6f6e60448201526d32bc34b9ba32b73a103a37b5b2b760911b60648201526084016103e9565b6000828152600660209081526040909120825161048a9284019061108a565b60006001600160a01b0384163b15610d4c57604051630a85bd0160e11b81526001600160a01b0385169063150b7a0290610c8e90339089908890889060040161159e565b602060405180830381600087803b158015610ca857600080fd5b505af1925050508015610cd8575060408051601f3d908101601f19168201909252610cd5918101906115db565b60015b610d32573d808015610d06576040519150601f19603f3d011682016040523d82523d6000602084013e610d0b565b606091505b508051610d2a5760405162461bcd60e51b81526004016103e99061154c565b805181602001fd5b6001600160e01b031916630a85bd0160e11b149050610720565b506001949350505050565b60606000610d6483610e27565b600101905060008167ffffffffffffffff811115610d8457610d846112b3565b6040519080825280601f01601f191660200182016040528015610dae576020820181803683370190505b5090508181016020015b600019016f181899199a1a9b1b9c1cb0b131b232b360811b600a86061a8153600a8504945084610de757610dec565b610db8565b509392505050565b610dfe8383610eff565b610e0b6000848484610c4a565b61048a5760405162461bcd60e51b81526004016103e99061154c565b60008072184f03e93ff9f4daa797ed6e38ed64bf6a1f0160401b8310610e665772184f03e93ff9f4daa797ed6e38ed64bf6a1f0160401b830492506040015b6d04ee2d6d415b85acef81000000008310610e92576d04ee2d6d415b85acef8100000000830492506020015b662386f26fc100008310610eb057662386f26fc10000830492506010015b6305f5e1008310610ec8576305f5e100830492506008015b6127108310610edc57612710830492506004015b60648310610eee576064830492506002015b600a83106102b55760010192915050565b6001600160a01b038216610f555760405162461bcd60e51b815260206004820181905260248201527f4552433732313a206d696e7420746f20746865207a65726f206164647265737360448201526064016103e9565b6000818152600260205260409020546001600160a01b031615610fba5760405162461bcd60e51b815260206004820152601c60248201527f4552433732313a20746f6b656e20616c7265616479206d696e7465640000000060448201526064016103e9565b6000818152600260205260409020546001600160a01b03161561101f5760405162461bcd60e51b815260206004820152601c60248201527f4552433732313a20746f6b656e20616c7265616479206d696e7465640000000060448201526064016103e9565b6001600160a01b038216600081815260036020908152604080832080546001019055848352600290915280822080546001600160a01b0319168417905551839291907fddf252ad1be2c89b69c2b068fc378daa952ba7f163c4a11628f55a4df523b3ef908290a45050565b82805461109690611450565b90600052602060002090601f0160209004810192826110b857600085556110fe565b82601f106110d157805160ff19168380011785556110fe565b828001600101855582156110fe579182015b828111156110fe5782518255916020019190600101906110e3565b5061110a92915061110e565b5090565b5b8082111561110a576000815560010161110f565b6001600160e01b0319811681146107ce57600080fd5b60006020828403121561114b57600080fd5b813561075881611123565b60005b83811015611171578181015183820152602001611159565b838111156106115750506000910152565b6000815180845261119a816020860160208601611156565b601f01601f19169290920160200192915050565b6020815260006107586020830184611182565b6000602082840312156111d357600080fd5b5035919050565b80356001600160a01b03811681146111f157600080fd5b919050565b6000806040838503121561120957600080fd5b611212836111da565b946020939093013593505050565b60008060006060848603121561123557600080fd5b61123e846111da565b925061124c602085016111da565b9150604084013590509250925092565b60006020828403121561126e57600080fd5b610758826111da565b6000806040838503121561128a57600080fd5b611293836111da565b9150602083013580151581146112a857600080fd5b809150509250929050565b634e487b7160e01b600052604160045260246000fd5b600067ffffffffffffffff808411156112e4576112e46112b3565b604051601f8501601f19908116603f0116810190828211818310171561130c5761130c6112b3565b8160405280935085815286868601111561132557600080fd5b858560208301376000602087830101525050509392505050565b6000806000806080858703121561135557600080fd5b61135e856111da565b935061136c602086016111da565b925060408501359150606085013567ffffffffffffffff81111561138f57600080fd5b8501601f810187136113a057600080fd5b6113af878235602084016112c9565b91505092959194509250565b600080604083850312156113ce57600080fd5b6113d7836111da565b9150602083013567ffffffffffffffff8111156113f357600080fd5b8301601f8101851361140457600080fd5b611413858235602084016112c9565b9150509250929050565b6000806040838503121561143057600080fd5b611439836111da565b9150611447602084016111da565b90509250929050565b600181811c9082168061146457607f821691505b6020821081141561148557634e487b7160e01b600052602260045260246000fd5b50919050565b6020808252602d908201527f4552433732313a2063616c6c6572206973206e6f7420746f6b656e206f776e6560408201526c1c881bdc88185c1c1c9bdd9959609a1b606082015260800190565b600083516114ea818460208801611156565b8351908301906114fe818360208801611156565b01949350505050565b60208082526025908201527f4552433732313a207472616e736665722066726f6d20696e636f72726563742060408201526437bbb732b960d91b606082015260800190565b60208082526032908201527f4552433732313a207472616e7366657220746f206e6f6e20455243373231526560408201527131b2b4bb32b91034b6b83632b6b2b73a32b960711b606082015260800190565b6001600160a01b03858116825284166020820152604081018390526080606082018190526000906115d190830184611182565b9695505050505050565b6000602082840312156115ed57600080fd5b81516107588161112356fea2646970667358221220baaf50ab95d713cac9c47789f0654f5cee59819eda3735b3dc618b7b645715ec64736f6c63430008090033",
  "linkReferences": {},
  "deployedLinkReferences": {}
}