{
  "_format": "hh-sol-artifact-1",
  "contractName": "MyTestNFT",
  "sourceName": "contracts/MyTestNFT.sol",
  "abi": [
    {
      "inputs": [],
      "stateMutability": "nonpayable",
      "type": "constructor"
    },
    {
      "anonymous": false,
      "inputs": [
        {
          "indexed": true,
          "internalType": "address",
          "name": "owner",
          "type": "address"
        },
        {
          "indexed": true,
          "internalType": "address",
          "name": "approved",
          "type": "address"
        },
        {
          "indexed": true,
          "internalType": "uint256",
          "name": "tokenId",
          "type": "uint256"
        }
      ],
      "name": "Approval",
      "type": "event"
    },
    {
      "anonymous": false,
      "inputs": [
        {
          "indexed": true,
          "internalType": "address",
          "name": "owner",
          "type": "address"
        },
        {
          "indexed": true,
          "internalType": "address",
          "name": "operator",
          "type": "address"
        },
        {
          "indexed": false,
          "internalType": "bool",
          "name": "approved",
          "type": "bool"
        }
      ],
      "name": "ApprovalForAll",
      "type": "event"
    },
    {
      "anonymous": false,
      "inputs": [
        {
          "indexed": true,
          "internalType": "address",
          "name": "from",
          "type": "address"
        },
        {
          "indexed": true,
          "internalType": "address",
          "name": "to",
          "type": "address"
        },
        {
          "indexed": true,
          "internalType": "uint256",
          "name": "tokenId",
          "type": "uint256"
        }
      ],
      "name": "Transfer",
      "type": "event"
    },
    {
      "inputs": [
        {
          "internalType": "address",
          "name": "to",
          "type": "address"
        },
        {
          "internalType": "uint256",
          "name": "tokenId",
          "type": "uint256"
        }
      ],
      "name": "approve",
      "outputs": [],
      "stateMutability": "nonpayable",
      "type": "function"
    },
    {
      "inputs": [
        {
          "internalType": "address",
          "name": "owner",
          "type": "address"
        }
      ],
      "name": "balanceOf",
      "outputs": [
        {
          "internalType": "uint256",
          "name": "",
          "type": "uint256"
        }
      ],
      "stateMutability": "view",
      "type": "function"
    },
    {
      "inputs": [
        {
          "internalType": "uint256",
          "name": "tokenId",
          "type": "uint256"
        }
      ],
      "name": "getApproved",
      "outputs": [
        {
          "internalType": "address",
          "name": "",
          "type": "address"
        }
      ],
      "stateMutability": "view",
      "type": "function"
    },
    {
      "inputs": [
        {
          "internalType": "address",
          "name": "owner",
          "type": "address"
        },
        {
          "internalType": "address",
          "name": "operator",
          "type": "address"
        }
      ],
      "name": "isApprovedForAll",
      "outputs": [
        {
          "internalType": "bool",
          "name": "",
          "type": "bool"
        }
      ],
      "stateMutability": "view",
      "type": "function"
    },
    {
      "inputs": [],
      "name": "name",
      "outputs": [
        {
          "internalType": "string",
          "name": "",
          "type": "string"
        }
      ],
      "stateMutability": "view",
      "type": "function"
    },
    {
      "inputs": [
        {
          "internalType": "uint256",
          "name": "tokenId",
          "type": "uint256"
        }
      ],
      "name": "ownerOf",
      "outputs": [
        {
          "internalType": "address",
          "name": "",
          "type": "address"
        }
      ],
      "stateMutability": "view",
      "type": "function"
    },
    {
      "inputs": [
        {
          "internalType": "address",
          "name": "to",
          "type": "address"
        },
        {
          "internalType": "string",
          "name": "tokenURI",
          "type": "string"
        }
      ],
      "name": "safeMint",
      "outputs": [
        {
          "internalType": "uint256",
          "name": "",
          "type": "uint256"
        }
      ],
      "stateMutability": "nonpayable",
      "type": "function"
    },
    {
      "inputs": [
        {
          "internalType": "address",
          "name": "from",
          "type": "address"
        },
        {
          "internalType": "address",
          "name": "to",
          "type": "address"
        },
        {
          "internalType": "uint256",
          "name": "tokenId",
          "type": "uint256"
        }
      ],
      "name": "safeTransferFrom",
      "outputs": [],
      "stateMutability": "nonpayable",
      "type": "function"
    },
    {
      "inputs": [
        {
          "internalType": "address",
          "name": "from",
          "type": "address"
        },
        {
          "internalType": "address",
          "name": "to",
          "type": "address"
        },
        {
          "internalType": "uint256",
          "name": "tokenId",
          "type": "uint256"
        },
        {
          "internalType": "bytes",
          "name": "data",
          "type": "bytes"
        }
      ],
      "name": "safeTransferFrom",
      "outputs": [],
      "stateMutability": "nonpayable",
      "type": "function"
    },
    {
      "inputs": [
        {
          "internalType": "address",
          "name": "operator",
          "type": "address"
        },
        {
          "internalType": "bool",
          "name": "approved",
          "type": "bool"
        }
      ],
      "name": "setApprovalForAll",
      "outputs": [],
      "stateMutability": "nonpayable",
      "type": "function"
    },
    {
      "inputs": [
        {
          "internalType": "bytes4",
          "name": "interfaceId",
          "type": "bytes4"
        }
      ],
      "name": "supportsInterface",
      "outputs": [
        {
          "internalType": "bool",
          "name": "",
          "type": "bool"
        }
      ],
      "stateMutability": "view",
      "type": "function"
    },
    {
      "inputs": [],
      "name": "symbol",
      "outputs": [
        {
          "internalType": "string",
          "name": "",
          "type": "string"
        }
      ],
      "stateMutability": "view",
      "type": "function"
    },
    {
      "inputs": [
        {
          "internalType": "uint256",
          "name": "tokenId",
          "type": "uint256"
        }
      ],
      "name": "tokenURI",
      "outputs": [
        {
          "internalType": "string",
          "name": "",
          "type": "string"
        }
      ],
      "stateMutability": "view",
      "type": "function"
    },
    {
      "inputs": [
        {
          "internalType": "address",
          "name": "from",
          "type": "address"
        },
        {
          "internalType": "address",
          "name": "to",
          "type": "address"
        },
        {
          "internalType": "uint256",
          "name": "tokenId",
          "type": "uint256"
        }
      ],
      "name": "transferFrom",
      "outputs": [],
      "stateMutability": "nonpayable",
      "type": "function"
    }
  ],
  "bytecode": "0x60806040523480156200001157600080fd5b50604080518082018252600b81526a135e4815195cdd0813919560aa1b60208083019182528351808501909452600384526226aa2760e91b9084015281519192916200006091600091620000ef565b50805162000076906001906020840190620000ef565b505050620000936200008d6200009960201b60201c565b6200009d565b620001d2565b3390565b600680546001600160a01b038381166001600160a01b0319831681179093556040519116919082907f8be0079c531659141344cd1fd0a4f28419497f9722a3daafe3b4186f6b6457e090600090a35050565b828054620000fd9062000195565b90600052602060002090601f0160209004810192826200012157600085556200016c565b82601f106200013c57805160ff19168380011785556200016c565b828001600101855582156200016c579182015b828111156200016c5782518255916020019190600101906200014f565b506200017a9291506200017e565b5090565b5b808211156200017a57600081556001016200017f565b600181811c90821680620001aa57607f821691505b60208210811415620001cc57634e487b7160e01b600052602260045260246000fd5b50919050565b6114ca80620001e26000396000f3fe608060405234801561001057600080fd5b506004361061010b5760003560e01c806370a08231116100a2578063a22cb46511610071578063a22cb4651461021b578063b88d4fde1461022e578063c87b56dd14610241578063e985e9c514610254578063f2fde38b1461029057600080fd5b806370a08231146101d9578063715018a6146101fa5780638da5cb5b1461020257806395d89b411461021357600080fd5b806323b872dd116100de57806323b872dd1461018d57806340d097c3146101a057806342842e0e146101b35780636352211e146101c657600080fd5b806301ffc9a71461011057806306fdde0314610138578063081812fc1461014d578063095ea7b314610178575b600080fd5b61012361011e36600461104d565b6102a3565b60405190151581526020015b60405180910390f35b6101406102f5565b60405161012f91906110c2565b61016061015b3660046110d5565b610387565b6040516001600160a01b03909116815260200161012f565b61018b61018636600461110a565b6103ae565b005b61018b61019b366004611134565b6104c9565b61018b6101ae366004611170565b6104fa565b61018b6101c1366004611134565b61052b565b6101606101d43660046110d5565b610546565b6101ec6101e7366004611170565b6105a6565b60405190815260200161012f565b61018b61062c565b6006546001600160a01b0316610160565b610140610640565b61018b61022936600461118b565b61064f565b61018b61023c3660046111dd565b61065a565b61014061024f3660046110d5565b610692565b6101236102623660046112b9565b6001600160a01b03918216600090815260056020908152604080832093909416825291909152205460ff1690565b61018b61029e366004611170565b610706565b60006001600160e01b031982166380ac58cd60e01b14806102d457506001600160e01b03198216635b5e139f60e01b145b806102ef57506301ffc9a760e01b6001600160e01b03198316145b92915050565b606060008054610304906112ec565b80601f0160208091040260200160405190810160405280929190818152602001828054610330906112ec565b801561037d5780601f106103525761010080835404028352916020019161037d565b820191906000526020600020905b81548152906001019060200180831161036057829003601f168201915b5050505050905090565b60006103928261077f565b506000908152600460205260409020546001600160a01b031690565b60006103b982610546565b9050806001600160a01b0316836001600160a01b0316141561042c5760405162461bcd60e51b815260206004820152602160248201527f4552433732313a20617070726f76616c20746f2063757272656e74206f776e656044820152603960f91b60648201526084015b60405180910390fd5b336001600160a01b038216148061044857506104488133610262565b6104ba5760405162461bcd60e51b815260206004820152603d60248201527f4552433732313a20617070726f76652063616c6c6572206973206e6f7420746f60448201527f6b656e206f776e6572206f7220617070726f76656420666f7220616c6c0000006064820152608401610423565b6104c483836107de565b505050565b6104d3338261084c565b6104ef5760405162461bcd60e51b815260040161042390611327565b6104c48383836108cb565b610502610a2f565b600061050d60075490565b905061051d600780546001019055565b6105278282610a89565b5050565b6104c48383836040518060200160405280600081525061065a565b6000818152600260205260408120546001600160a01b0316806102ef5760405162461bcd60e51b8152602060048201526018602482015277115490cdcc8c4e881a5b9d985b1a59081d1bdad95b88125160421b6044820152606401610423565b60006001600160a01b0382166106105760405162461bcd60e51b815260206004820152602960248201527f4552433732313a2061646472657373207a65726f206973206e6f7420612076616044820152683634b21037bbb732b960b91b6064820152608401610423565b506001600160a01b031660009081526003602052604090205490565b610634610a2f565b61063e6000610aa3565b565b606060018054610304906112ec565b610527338383610af5565b610664338361084c565b6106805760405162461bcd60e51b815260040161042390611327565b61068c84848484610bc4565b50505050565b606061069d8261077f565b60006106b460408051602081019091526000815290565b905060008151116106d457604051806020016040528060008152506106ff565b806106de84610bf7565b6040516020016106ef929190611374565b6040516020818303038152906040525b9392505050565b61070e610a2f565b6001600160a01b0381166107735760405162461bcd60e51b815260206004820152602660248201527f4f776e61626c653a206e6577206f776e657220697320746865207a65726f206160448201526564647265737360d01b6064820152608401610423565b61077c81610aa3565b50565b6000818152600260205260409020546001600160a01b031661077c5760405162461bcd60e51b8152602060048201526018602482015277115490cdcc8c4e881a5b9d985b1a59081d1bdad95b88125160421b6044820152606401610423565b600081815260046020526040902080546001600160a01b0319166001600160a01b038416908117909155819061081382610546565b6001600160a01b03167f8c5be1e5ebec7d5bd14f71427d1e84f3dd0314c0f7b2291e5b200ac8c7c3b92560405160405180910390a45050565b60008061085883610546565b9050806001600160a01b0316846001600160a01b0316148061089f57506001600160a01b0380821660009081526005602090815260408083209388168352929052205460ff165b806108c35750836001600160a01b03166108b884610387565b6001600160a01b0316145b949350505050565b826001600160a01b03166108de82610546565b6001600160a01b0316146109045760405162461bcd60e51b8152600401610423906113a3565b6001600160a01b0382166109665760405162461bcd60e51b8152602060048201526024808201527f4552433732313a207472616e7366657220746f20746865207a65726f206164646044820152637265737360e01b6064820152608401610423565b826001600160a01b031661097982610546565b6001600160a01b03161461099f5760405162461bcd60e51b8152600401610423906113a3565b600081815260046020908152604080832080546001600160a01b03199081169091556001600160a01b0387811680865260038552838620805460001901905590871680865283862080546001019055868652600290945282852080549092168417909155905184937fddf252ad1be2c89b69c2b068fc378daa952ba7f163c4a11628f55a4df523b3ef91a4505050565b6006546001600160a01b0316331461063e5760405162461bcd60e51b815260206004820181905260248201527f4f776e61626c653a2063616c6c6572206973206e6f7420746865206f776e65726044820152606401610423565b610527828260405180602001604052806000815250610c94565b600680546001600160a01b038381166001600160a01b0319831681179093556040519116919082907f8be0079c531659141344cd1fd0a4f28419497f9722a3daafe3b4186f6b6457e090600090a35050565b816001600160a01b0316836001600160a01b03161415610b575760405162461bcd60e51b815260206004820152601960248201527f4552433732313a20617070726f766520746f2063616c6c6572000000000000006044820152606401610423565b6001600160a01b03838116600081815260056020908152604080832094871680845294825291829020805460ff191686151590811790915591519182527f17307eab39ab6107e8899845ad3d59bd9653f200f220920489ca2b5937696c31910160405180910390a3505050565b610bcf8484846108cb565b610bdb84848484610cc7565b61068c5760405162461bcd60e51b8152600401610423906113e8565b60606000610c0483610dd4565b600101905060008167ffffffffffffffff811115610c2457610c246111c7565b6040519080825280601f01601f191660200182016040528015610c4e576020820181803683370190505b5090508181016020015b600019016f181899199a1a9b1b9c1cb0b131b232b360811b600a86061a8153600a8504945084610c8757610c8c565b610c58565b509392505050565b610c9e8383610eac565b610cab6000848484610cc7565b6104c45760405162461bcd60e51b8152600401610423906113e8565b60006001600160a01b0384163b15610dc957604051630a85bd0160e11b81526001600160a01b0385169063150b7a0290610d0b90339089908890889060040161143a565b602060405180830381600087803b158015610d2557600080fd5b505af1925050508015610d55575060408051601f3d908101601f19168201909252610d5291810190611477565b60015b610daf573d808015610d83576040519150601f19603f3d011682016040523d82523d6000602084013e610d88565b606091505b508051610da75760405162461bcd60e51b8152600401610423906113e8565b805181602001fd5b6001600160e01b031916630a85bd0160e11b1490506108c3565b506001949350505050565b60008072184f03e93ff9f4daa797ed6e38ed64bf6a1f0160401b8310610e135772184f03e93ff9f4daa797ed6e38ed64bf6a1f0160401b830492506040015b6d04ee2d6d415b85acef81000000008310610e3f576d04ee2d6d415b85acef8100000000830492506020015b662386f26fc100008310610e5d57662386f26fc10000830492506010015b6305f5e1008310610e75576305f5e100830492506008015b6127108310610e8957612710830492506004015b60648310610e9b576064830492506002015b600a83106102ef5760010192915050565b6001600160a01b038216610f025760405162461bcd60e51b815260206004820181905260248201527f4552433732313a206d696e7420746f20746865207a65726f20616464726573736044820152606401610423565b6000818152600260205260409020546001600160a01b031615610f675760405162461bcd60e51b815260206004820152601c60248201527f4552433732313a20746f6b656e20616c7265616479206d696e746564000000006044820152606401610423565b6000818152600260205260409020546001600160a01b031615610fcc5760405162461bcd60e51b815260206004820152601c60248201527f4552433732313a20746f6b656e20616c7265616479206d696e746564000000006044820152606401610423565b6001600160a01b038216600081815260036020908152604080832080546001019055848352600290915280822080546001600160a01b0319168417905551839291907fddf252ad1be2c89b69c2b068fc378daa952ba7f163c4a11628f55a4df523b3ef908290a45050565b6001600160e01b03198116811461077c57600080fd5b60006020828403121561105f57600080fd5b81356106ff81611037565b60005b8381101561108557818101518382015260200161106d565b8381111561068c5750506000910152565b600081518084526110ae81602086016020860161106a565b601f01601f19169290920160200192915050565b6020815260006106ff6020830184611096565b6000602082840312156110e757600080fd5b5035919050565b80356001600160a01b038116811461110557600080fd5b919050565b6000806040838503121561111d57600080fd5b611126836110ee565b946020939093013593505050565b60008060006060848603121561114957600080fd5b611152846110ee565b9250611160602085016110ee565b9150604084013590509250925092565b60006020828403121561118257600080fd5b6106ff826110ee565b6000806040838503121561119e57600080fd5b6111a7836110ee565b9150602083013580151581146111bc57600080fd5b809150509250929050565b634e487b7160e01b600052604160045260246000fd5b600080600080608085870312156111f357600080fd5b6111fc856110ee565b935061120a602086016110ee565b925060408501359150606085013567ffffffffffffffff8082111561122e57600080fd5b818701915087601f83011261124257600080fd5b813581811115611254576112546111c7565b604051601f8201601f19908116603f0116810190838211818310171561127c5761127c6111c7565b816040528281528a602084870101111561129557600080fd5b82602086016020830137600060208483010152809550505050505092959194509250565b600080604083850312156112cc57600080fd5b6112d5836110ee565b91506112e3602084016110ee565b90509250929050565b600181811c9082168061130057607f821691505b6020821081141561132157634e487b7160e01b600052602260045260246000fd5b50919050565b6020808252602d908201527f4552433732313a2063616c6c6572206973206e6f7420746f6b656e206f776e6560408201526c1c881bdc88185c1c1c9bdd9959609a1b606082015260800190565b6000835161138681846020880161106a565b83519083019061139a81836020880161106a565b01949350505050565b60208082526025908201527f4552433732313a207472616e736665722066726f6d20696e636f72726563742060408201526437bbb732b960d91b606082015260800190565b60208082526032908201527f4552433732313a207472616e7366657220746f206e6f6e20455243373231526560408201527131b2b4bb32b91034b6b83632b6b2b73a32b960711b606082015260800190565b6001600160a01b038581168252841660208201526040810183905260806060820181905260009061146d90830184611096565b9695505050505050565b60006020828403121561148957600080fd5b81516106ff8161103756fea2646970667358221220610ab20e40e3d1cfc88e0f93ccb77eaeec92518edf547fb257d321fe98f3d3dd64736f6c63430008090033",
  "linkReferences": {},
  "deployedLinkReferences": {}
}